:020000000328D3
:1000060083160313860101308312A2008030A300F9
:10001600813086000D30FB002D30FC00D730FD000E
:10002600FD0B1328FC0B1328FB0B13280000000004
:100036002208F200F20D72107208A2002308F000E6
:10004600F00CF0137008A3007008720786000D30DC
:10005600FB002D30FC00D730FD00FD0B3028FC0BDB
:100066003028FB0B3028000000002208803A031DD0
:1000760050280130A2008030A300813086000D3068
:10008600FB002D30FC00D730FD00FD0B4828FC0B93
:0E0096004828FB0B4828000000001B285128BA
:02400E007A3BFB
:00000001FF
