:0200000059287D
:10000600831203130608F000F00CF0137008860044
:100016000630FB001330FC00AD30FD00FD0B11284F
:10002600FC0B1128FB0B1128000000000608013A02
:10003600031D2D28803086000630FB001330FC009F
:10004600AD30FD00FD0B2528FC0B2528FB0B2528D4
:060056000000000008009C
:10005C00831203130608F000F00D70107008860070
:10006C000630FB001330FC00AD30FD00FD0B3C28CE
:10007C00FC0B3C28FB0B3C28000000000608803AD7
:10008C00031D5828013086000630FB001330FC009D
:10009C00AD30FD00FD0B5028FC0B5028FB0B5028FD
:0600AC0000000000080046
:1000B2000330831603138800860101308312860001
:1000C200081C652803206828881C68282E206128BF
:0200D20069289B
:02400E007A3BFB
:00000001FF
