:020000000328D3
:10000600831603138601FC30831286000B30FB0037
:100016002630FC005D30FD00FD0B0F28FC0B0F2881
:10002600FB0B0F2800000000603086000B30FB0041
:100036002630FC005D30FD00FD0B1F28FC0B1F2841
:10004600FB0B1F2800000000DA3086000B30FB0097
:100056002630FC005D30FD00FD0B2F28FC0B2F2801
:10006600FB0B2F2800000000F23086000B30FB004F
:100076002630FC005D30FD00FD0B3F28FC0B3F28C1
:10008600FB0B3F2800000000663086000B30FB00AB
:100096002630FC005D30FD00FD0B4F28FC0B4F2881
:0C00A600FB0B4F28000000000628582823
:02400E007A3BFB
:00000001FF
