:020000003B299A
:10000600710DF80DF90D7408F8027508031C750FCB
:10001600F902F00DF10D0F30FC00710DF80DF90D20
:100026007408701C1C28F8027508031C750FF90269
:100036002128F80775080318750FF907F00DF10D5B
:10004600FC0B102870182D287408F807750803187B
:08005600750FF9070000080016
:10005E00831203137408003A031D3E287508003AF4
:10006E00031D3E28FF30F0007F30F10097288312E9
:10007E000313FD01F901F80171087004031900342E
:10008E0071087506FA00FA1BFD09FB01F51F5428CD
:10009E00F409F509F40A0319F50AF11F5B28F009B2
:1000AE00F109F00A0319F10A71087504FA00FA1B36
:1000BE00702803207B188328FD1F0034F009F109F6
:1000CE00F00A0319F10AF809F909F80A0319F90AED
:1000DE000034F51F7F28F11B7B287108F90070088A
:1000EE00F800F101F0016328F101F001F00A00348B
:1000FE00F109F009FB0A6028F80A0319F90A7408D5
:10010E007802031D632875087902031D6328F9011F
:10011E00F801F00A0319F10AF11F63280000FF34F9
:02012E000800C7
:0E0130008312031327088A00260882000800A5
:10013E00E83083120313F4000330F5002008F000BA
:10014E002108F1002F207008A2007108A300E830EA
:10015E00F4000330F5002008F0002108F1002F20F4
:10016E007808F0007908F1006430F4000030F500F2
:10017E002F207008A4007108A5006430F400003030
:10018E00F5002008F0002108F1002F207808F0007B
:10019E007908F1000A30F4000030F5002F207008C5
:1001AE00A8007108A9000A30F4000030F5002008FC
:1001BE00F0002108F1002F207808F0007908F100F6
:1001CE007008AB007108AC00EF3087007008860035
:1001DE000330FC009730FD00FD0BF328FC0BF328D9
:1001EE0000000000DF308700280886000330FC0086
:1001FE009730FD00FD0B0129FC0B012900000000CA
:10020E00BF308700240886000330FC009730FD00C5
:10021E00FD0B0F29FC0B0F29000000007F3087001B
:10022E00220886000330FC009730FD00FD0B1D29CF
:0A023E00FC0B1D2900000000080061
:1002480098208A110A128000840AA60A0319A70AAC
:08025800F003031D2429080036
:100260008316031386018701831286018701FF30FD
:060270008316880008005F
:1002760083120313A001A10130218312881C652972
:100286002A1865292A140230FB000430FC00BA3013
:10029600FD00FD0B4C29FC0B4C29FB0B4C290000E7
:1002A600A00A0319A10A8030273AF00080302106FF
:1002B6007002031D602920080F3C03186429A00161
:1002C600A1016829881868292A10081C8E29AA18ED
:1002D6008E29AA140230FB000430FC00BA30FD005F
:1002E600FD0B7329FC0B7329FB0B732900000130EE
:1002F600A002031CA10380302106F00080307002AA
:10030600031D87290030200203188D290F30A00015
:100316002730A100912908189129AA109F20402969
:02032600932919
:02400E007A3BFB
:00000001FF
