:020000000328D3
:10000600831603138601013083128600A201A30121
:100016008030F000803023067002031D1428220869
:10002600073C031C2E280630FB001330FC00AD30C5
:10003600FD00FD0B1C28FC0B1C28FB0B1C280000DC
:1000460000000608F000F00D701070088600A20A85
:100056000319A30A0B2880308600A201A301803071
:10006600F000803023067002031D3B282208073C5F
:10007600031C55280630FB001330FC00AD30FD0094
:10008600FD0B4328FC0B4328FB0B43280000000014
:100096000608F000F00CF01370088600A20A031997
:0800A600A30A3228092856289C
:02400E007A3BFB
:00000001FF
