:02000000AE2E22
:06000600000000000800EC
:10000C000F3083120313FC004730FD00FD0B0C284E
:0A001C00FC0B0C2800000000080097
:0E002600213083120313FD00FD0B1728080084
:08003400FA1FF213003008006E
:10003C007B15FB1F28280130F300F201F101F001C0
:08004C00FA0DF20CFF30080070
:1000540083160313B81B31288312861133288312A5
:1000640086158316381B3928831206113B28831200
:1000740006158316B81A4128831286104328831262
:1000840086148316381A4928831206104B288312C3
:10009400061452184F2806165028061286160320F6
:1000A40086128316B8195928831286115B28831285
:1000B4008615831638196128831206116328831262
:1000C40006158316B8186928831286106B288312C4
:1000D4008614831638187128831206107328831225
:1000E4000614521877280616782806128616032056
:0E00F4008612521C7F28062080281320080048
:1001020083120313FB01FA01F9018030F800F10CAC
:10011200F00C031C95287408F90775080318750F6D
:10012200FA070318FB0A0310F01F9D287408FA0748
:1001320075080318750FFB07FB0CFA0CF90CF80C89
:10014200031C88287B08F3007A08F2007908F10082
:060152007808F00008002F
:10015800FB14FB1FB628FF30F300F200F100F0009B
:08016800FA0DF20CFF30080053
:0E017000F201F101F001F801F3010030080086
:10017E000E3083120313FD00FD0BC3280000080090
:10018E00831603131208013EF000F1010318F10A61
:10019E003408F400F50181200630F2007008F400F6
:1001AE007108F50072080319E128F50CF40CF5132B
:1001BE00FF3EDA280430F1007408F00071080319CC
:1001CE00EC28F00D7010FF3EE62830307005F3007D
:1001DE007408F0007508F100F10CF00CF113F10C3D
:1001EE00F00CF113700895000F3097057308970403
:0201FE000800F7
:0E0200008312031351088A0050088200080080
:10020E007B14FB1F1229F201FA1FFF30F200F100DE
:0A021E00F000FA0DF20CFF300800AA
:10022800831603130711831212150C309704080064
:10023800AA017208031D31297108F2007008F10043
:10024800F001AA157208031D31297108F200F101A5
:10025800AA112A16720803193F292A08F302031D56
:10026800031C43290310F21B4729F00DF10DF20D71
:10027800F30B372943290130FC00B8204A29023002
:0E028800FC001E204A290430FC001A20080049
:06029600FB15FF3008001B
:10029C0083120313FB017308031D77080319A529A7
:1002AC0072087606FA007708F3077E30031C622981
:1002BC00F3020318A8296529F302031CAB29720861
:1002CC00F8007108FC007008FD00F817F617031011
:1002DC00F201F101F0011830AA007D1C7F2974088D
:1002EC00F00775080318750FF10776080318760FD9
:1002FC00F207F20CF10CF00CF80CFC0CFD0C0310DA
:10030C00AA0B7329F21B8F29F80DF00DF10DF20DCC
:10031C00F3037B1B701CA129F81FA129F00A0319F8
:10032C00F10A0319F20A031DA129F20CF10CF00CCD
:10033C00F30A0319A829FA1FF2130030AD29013072
:10034C00B820AD290230AC20AD2904301E200000AD
:02035C00080097
:10035E0083120313FA017308031D7A147708031D21
:10036E00FA147A080319FB29033A0319C6297A18D5
:10037E00C329F61FF929F729F21FF729F92972085F
:10038E008039FA00F21376088039F6137A060319CB
:10039E00D4297A080319F729F92977087302031962
:1003AE00DB29031CEF29F329760872020319E229CF
:1003BE00031CEF29F329750871020319E929031C9F
:1003CE00EF29F329740870020319FB290318F32986
:1003DE00FA080319F929F729FA080319F729F9294F
:1003EE000314080003100800031403150800080086
:1003FE00831603133408F2007208F100F20A35086E
:10040E00F000B50A700884000008F000710884003E
:10041E00700880007108840000080319172A032A47
:06042E003408F000080094
:1004340083120313521083163408B8002A2052146E
:020444000800AE
:0C0446008312031395011712971208008F
:1004520083120313FD01F8017008031900347406B6
:10046200FA00FA1BFD09FB01F41F392AF409F40A08
:10047200F01F3D2AF009F00A70087404FA00FA1B12
:10048200612A7408F802F00D700DF80D7408F8076F
:10049200F00D0630FC00700DF80D74087018F802AB
:1004A200701CF807F00DFC0B4C2A701CF8077B1827
:1004B2006F2AFD1F0034F009F00AF809F80A003427
:1004C200F41F6C2AF01B692A7008F800F0015A2AFE
:1004D200F001F00A0034F009FB0A422AF80A740813
:1004E2007802031D5A2AF801F00AF01F5A2AFF3433
:0204F200080000
:1004F400831603138612061206108610061186113F
:100504008312861206128611061186100610062022
:10051400062006208614061486160320861206205A
:1005240086160320861206208616032086120620CD
:1005340006108616032086120620861603208612CD
:100544008610861586160320861206208611061448
:1005540086160320861206108616032086120620AD
:100564008616032086120614861603208612062099
:1005740006108616032086128615061586140614A0
:0C05840086160320861206205214080080
:10059000831203139F01C0309F044F09F0007008BD
:1005A00083169F051F179F1783126708F000F00D31
:1005B0007010F00D7010F00D701070089F041F1473
:1005C000BF201F151F1DE62A0000E22A1F101E086B
:1005D000F100F00183161E08F0040030F104080059
:1005E000831203136708F2007208840000080319DD
:1005F000FB2AF20AF42A7208F100F20A6808F000F5
:10060000E80A700884000008F0007108840070088F
:10061000800071088400000803190F2BFB2A67086B
:04062000F0000800DE
:1006240083120313EE01EF0167088316B0008312EF
:1006340068088316B100831269088316B200831216
:100644006A088316B3003308FF3A031D332B3208BC
:10065400FF3A031D332B3108FF3A031D332B3008B7
:10066400FF3A031D3F2B83126B088316B40031300D
:10067400B500FF210330F000302D01308312EC006F
:100684008316B21F512B80303206F0007008B2007E
:100694008312EC0A6B0884002D308000EB0A0030D2
:1006A400F00083163306031D612B70083206031D08
:1006B400612B70083106031D612B3008003A031DBD
:1006C4006C2B83126B088316B4002B30B500FF210A
:1006D400F001302D3308FF3A031D7A2B3208003A1B
:1006E400031D7A2B3108003A031D7A2B3008003A97
:1006F400031D872B83126B088316B4002D30B500BD
:10070400FF2183126C08F000302D0030F40000301B
:10071400F5000030F6007F30F70083163008F00053
:100724003108F1003208F2003308F300AF21013040
:1007340003180030F00070080319BE2B831630082C
:10074400F0003108F1003208F2003308F300003001
:10075400F4000030F5002030F6008230F7004E211E
:1007640070088316B0007108B1007208B2007308F3
:10077400B3008312EF03872B0030F4000030F50040
:100784002030F6008230F70083163008F00031087C
:10079400F1003208F2003308F300AF210130031CEA
:1007A4000030F00070080319F52B83163008F000B0
:1007B4003108F1003208F2003308F300CD30F400C0
:1007C400CC30F5004C30F6007B30F7004E21700839
:1007D4008316B0007108B1007208B2007308B30048
:1007E4008312EF0ABE2BFF3083163005F800FF306A
:1007F4003105F9007F303205FA0000303305FB0083
:100804007808F4007908F5007A08F6007B08F70008
:10081400F40DF50DF60DF70D741000303005F000F1
:1008240000303105F10000303205F200FF303305AD
:10083400F3007008B0007108B1007208B2007308C8
:10084400B30074083004F00075083104F100760830
:100854003204F20077083304F3007008B000710822
:10086400B1007208B2007308B3007F303302F000A5
:1008740070088312ED0001308316B3007008F40091
:100884003008F0003108F1003208F2003308F300B8
:1008940074080319542CF00DF10DF20DF30D7010C2
:1008A400FF3E4B2C83167008B0007108B10072082B
:1008B400B2007308B3003308303EF00083126B08B3
:1008C400840070088000EB0A80306F06F0008030EE
:1008D400013A7002031C772C8030063AF000803015
:1008E4006F067002031C772C7E2C6B0884002E305C
:1008F4008000EB0A0130EE000630ED006D08003A8E
:100904000319DE2C8316B3013008F0003108F1001E
:100914003208F2003308F300F00DF10DF20DF30D7F
:100924007010F00DF10DF20DF30D70103008F0079A
:1009340031080318310FF10732080318320FF20798
:1009440033080318330FF3077008B0007108B100BF
:100954007208B2007308B3003008F0003108F100E7
:100964003208F2003308F300F00DF10DF20DF30D2F
:1009740070107008B0007108B1007208B2007308FA
:10098400B3003308303EF00083126B088400700813
:100994008000EB0A6E08003A031DDC2CEF036F089D
:1009A400003A031DDC2C6B0884002E308000EB0A17
:1009B4000130EE00ED03802CFF306B07840000084B
:1009C400303A031DE72CEB03DE2CFF306B07840069
:1009D40000082E3A031DEF2CEB036F08003A0319AD
:1009E4002C2D6B08840065308000EB0A80306F0684
:1009F400F0008030003A70020318082D6B08840060
:100A04002D308000EB0A6F08003CEF006F08ED000A
:100A14008030093AF00080306F06700203181E2DF2
:100A24000A30F4006D08F00029223030F0076B081A
:100A3400840070088000EB0A0A30F4006D08F000AE
:100A440029227808F0003030F0076B088400700821
:0E0A54008000EB0A6B0884008001F0010800AE
:100A6200831203137008F8007108F000F101F2011B
:100A7200F301FB01FC019630F300FA017008F1006A
:0C0A82007808F000F801F2011C210800C7
:100A8E0083120313FB01FC01FA0173080319742D81
:100A9E00FA13F2178630F302F31B582D0319582D53
:100AAE00762DF309F30A08307302031C652DF3004B
:100ABE00F20DF2017308031D03106C2D7308031958
:100ACE006C2D0310F20CF30B682D7B1B721C742D16
:100ADE00031C742DF20A03197B2DF1017E2D7B145C
:100AEE00FB1F812DF101812D0130FC00832D003083
:100AFE00FC00832DFF30FC00FC080319872D072115
:060B0E007208F00008006F
:100B140000218A110A128000840AD00A0319D10A1A
:080B2400F003031D8A2D0800F7
:100B2C004E30831603139F00453083129F008316AB
:100B3C008601831286017A2201308316B8002A209E
:100B4C000C308316B8002A2012109210C73083166E
:0E0B5C00920023228316B401C7201421080042
:100B6A00831203137408003A031DD02D7508003A46
:100B7A00031DD02D7608003A031DD02D7708003AC0
:100B8A00031DD02DFF30F000FF30F1007F30F2005E
:100B9A00FF30F3006B2E83120313770803195F2EBD
:100BAA0073080319622E720876068039FA00F21762
:100BBA00F617AA017208F8007108FC007008FD0017
:100BCA007408FD027508031C750FFC027608031CE5
:100BDA00760FF802F801FC01FD01031CFB2D03103E
:100BEA00F20CF10CF00CF80C0130AA007708F302B1
:100BFA00031C052E7E302A07F3070318652E0A2EDA
:100C0A007E302A07F307031C682E1830FA07FD0DF9
:100C1A00FC0DF80DF00DF10DF20DAA0D7408F0029D
:100C2A007508031C750FF1027608031C760FF20291
:100C3A00760DAA042A1C232E7D142E2E7408F00782
:100C4A0075080318750FF10776080318760AF20774
:100C5A007D10FA031F307A05031D0C2E7B1B7D1CA9
:100C6A00552E0310F00DF10DF20DAA0D7408F002C5
:100C7A007508031C750FF1027608031C760FF20241
:100C8A00760D2A040139FD070318FC0A0319F80A2C
:100C9A00031D552EF80CFC0CFD0CF30A0319652EE6
:100CAA00FA1FF8137808F2007C08F1007D08F000BA
:100CBA0000306A2E01304B216A2E0230B8206A2E8B
:0E0CCA000430AC206A2E08301E200000080006
:100CD8007E2E803083120313E700912EC030E70088
:100CE800912E9430E700912ED430E700912E803079
:100CF800E700912E831203136708013A03196D2E3A
:100D08006708023A0319722E6708033A0319752E09
:100D18006708043A0319782E7B2E6803F0006708E9
:100D2800F0077008E70070088316B8002A205210F0
:100D3800EA016A086907840000080319AC2E6A08EA
:100D48006907840000088316B4001A22EA0A9D2E57
:040D58005214080029
:100D5C00B82796250B30FB002630FC005D30FD00DB
:100D6C00FD0BB62EFC0BB62EFB0BB62E00000000B6
:100D7C0001308316B8002A20E701C82270088312BC
:100D8C00A0007108A1001A30E3006730E4001C30A9
:100D9C00E5008130E60031251A30F4006730F500AB
:100DAC001C30F6008130F7004E217008A20071084B
:100DBC00A3007208A4007308A5007008E70071086E
:100DCC00E8007208E9007308EA005330EB001223C4
:100DDC00533083120313E7003530E800F022013062
:100DEC00E7000130E8004030E9006C260230E700F3
:100DFC000130E8005330E9006C260B30FB00263044
:100E0C00FC005D30FD00FD0B092FFC0B092FFB0BCB
:100E1C00092F000000000030F4004030F5001C30B9
:100E2C00F6008B30F7002208F0002308F1002408AC
:100E3C00F2002508F300B5250030F4000030F50071
:100E4C007F30F6008630F7004E217008A60071083E
:100E5C00A7007208A8007308A9004725700883161C
:100E6C00B400C72001308316B8002A200130E700F7
:100E7C000130E8003930E9006C260030F400003015
:100E8C00F5007F30F6008630F7002608F0002708C2
:100E9C00F1002808F2002908F300B5250030F40011
:100EAC000030F5004830F6008530F7004E21700810
:100EBC00A6007108A7007208A8007308A9007008A2
:100ECC00E7007108E8007208E9007308EA00A03036
:100EDC00EB001223023083120313E7000130E80009
:100EEC00A030E9006C260B30FB002630FC005D3096
:100EFC00FD00FD0B7F2FFC0B7F2FFB0B7F2F0000CA
:0E0F0C00000001308316B8002A20C22E8C2F60
:100F70002B308400253083120313F0009230D00010
:080F80000730D1008A250800AA
:040F24003034003431
:080F280049344E344634003414
:080F30004E3461344E340034EC
:080F380020346D3456340034FE
:0E0F4000503457344D34203425343A340034C4
:100F4E004F346C34633475346C3465346E34203401
:0E0F5E00443465346734653472343A340034F8
:020F6C000F3440
:02400E007A3BFB
:00000001FF
