:020000000328D3
:100006008316031307108710071187110814881425
:100016000815860183120714081C1428033086006D
:100026001D28881C1928023086001D28081D1D2839
:100036000130860007108714081C24280630860025
:100046002D28881C2928053086002D28081D2D28D6
:100056000430860087100715081C342809308600EE
:100066003D28881C3928083086003D28081D3D2873
:100076000730860087150711081C432886014A2881
:10008600881C472886014A28081D4A2886010D280B
:020096004B28F5
:02400E007A3BFB
:00000001FF
