:020000000328D3
:1000060083120313221083168601013083128600A1
:100016000830FB009D30FC000530FD00FD0B11286B
:10002600FC0B1128FB0B11280000000022182228C7
:100036000608F000F00D70107008860028280608E3
:10004600F000F00CF013700886000830FB009D30BD
:10005600FC000530FD00FD0B2E28FC0B2E28FB0BAB
:100066002E28000000000608803A031D3B282214B3
:0E0076000608013A031D4028221019284128CF
:02400E007A3BFB
:00000001FF
