:0200000058287E
:0E0006008312031327088A00260882000800D0
:10001400831603139818102800000A2883122C084A
:040024009900080037
:100028008316031398169030831298008316871747
:10003800071383128C1E23281A08F0001D280800B5
:10004800831203131A08F100981C2C28181218168A
:060058007108F000080031
:10005E0003208A110A128000840AA60A0319A70A2D
:08006E00F003031D2F28080018
:1000760083120313AB01290884000008AA002A088A
:10008600003A031950282A08AC000A20AB0A2B08AC
:0C009600290784000008AA004228080086
:0E00A2000030831203138C1A0130F0000800A6
:1000B000423083120313A0006130A1007330A2000C
:1000C0006C30A3006130A400A50133308316990081
:1000D000181514200230FB000430FC00BA30FD007B
:1000E000FD0B7028FC0B7028FB0B702800002030E3
:1000F000A9003B200A30AC000A200D30AC000A20D9
:100100005120700803198E2824207008A800203080
:10011000F0027008A8007008AC000A2080288F2820
:02400E007A3BFB
:00000001FF
