:02000000842951
:10000800FF00030E8301A7000A08A6008A011E0844
:10001800A400A5010C131F1526088A00270E8300CB
:06002800FF0E7F0E09002F
:0E002E00F201F101F001F801F30100300800C9
:10003C007B15FB1F28280130F300F201F101F001C0
:08004C00FA0DF20CFF30080070
:08005400FA1FF213003008004E
:10005C00FB14FB1F3828FF30F300F200F100F00016
:08006C00FA0DF20CFF30080050
:10007400A0017208031D4F287108F2007008F100F6
:10008400F001A0157208031D4F287108F200F10158
:10009400A0112016720803195D282008F302031D1D
:1000A400031C61280310F21B6528F00DF10DF20DFD
:1000B400F30B552861280130FC0017206828023012
:0E00C400FC001E2068280430FC002A200800E2
:1000D2007B14FB1F7428F201FA1FFF30F200F100BB
:0A00E200F000FA0DF20CFF300800E8
:1000EC000E3083120313FD00FD0B7A28000008006C
:0E00FC008312031323088A00220882000800E2
:10010A007E208A110A128000840AA20A0319A30A0D
:08011A00F003031D8528080015
:1001220083120313FB017308031D77080319E828E0
:1001320072087606FA007708F3077E30031CA528BA
:10014200F3020318EB28A828F302031CEE28720816
:10015200F8007108FC007008FD00F817F61703108C
:10016200F201F101F0011830A0007D1CC2287408D0
:10017200F00775080318750FF10776080318760F54
:10018200F207F20CF10CF00CF80CFC0CFD0C031055
:10019200A00BB628F21BD228F80DF00DF10DF20DCE
:1001A200F3037B1B701CE428F81FE428F00A0319F0
:1001B200F10A0319F20A031DE428F20CF10CF00C07
:1001C200F30A0319EB28FA1FF2130030F02801306A
:1001D2001720F02802302E20F02804301E200000C4
:0201E200080013
:1001E400831203137008F8007108F000F101F201A2
:1001F400F301FB01FC019630F300FA017008F100F1
:0C0204007808F000F801F2013A20080030
:1002100083120313FB01FC01FA0173080319472938
:10022000F2178E30F302F31B1829031918294A29F3
:10023000F309F30A08307302031C2D29F300F10DB2
:100240007208F100F20108307302031C2D29F10D30
:10025000F1017308031D03103529730803193529AB
:100260000310F20CF10CF30B30297B1B711C3F299E
:10027000031C3F29F10A0319F20AF21B5629FA1F3F
:100280005929F209F109F10A0319F20A5929F2016F
:10029000F10159297B14FB1F5C29F201FA1F5C292B
:1002A000FF30F200F100FA0DF20C5C290130FC0085
:1002B0005E290030FC005E29FF30FC00FC080319B9
:0E02C000622969207108F0007208F100080040
:1002CE00C730831203139F052108F000F00D701044
:1002DE00F00D7010F00D701070089F0476201F1531
:1002EE001F1D7B29000077291E08F100F0018316DF
:0A02FE001E08F0040030F1040800AF
:1003080083120313A101672170088312A4007108E6
:10031800A500F220DB30F400F930F5007E30F6005D
:100328007C30F700912008217008A4007108A5000E
:0A0338007008860080308806A029B6
:02400E007A3BFB
:00000001FF
