:02000000602975
:0E000600213083120313FD00FD0B07280800B4
:06001400000000000800DE
:10001A000F3083120313FC004730FD00FD0B132839
:0A002A00FC0B132800000000080082
:1000340083120313E51B2028861121288615651BCE
:100044002528061126280615E51A2A2886102B28A5
:100054008614651A2F280610302806145C183428D4
:1000640006163528061286160A208612E5193C283B
:1000740086113D2886156519412806114228061562
:10008400E518462886104728861465184B2806105C
:100094004C2806145C185028061651280612861699
:1000A4000A2086125C1C58280D20592803200800B9
:1000B400831203135C106408E5001A205C14080022
:0E00C400831203135B088A005A0882000800AA
:1000D200831203136008F2006208F0006308F10063
:1000E2000130E202031CE3037008710403197F2844
:1000F2007208840061088000F20A6D286008F0002E
:020102000800F3
:100104008316031386120612061086100611861132
:1001140083128612061286110611861006100D200F
:100124000D200D208614061486160A2086120D2032
:1001340086160A2086120D2086160A2086120D20A5
:10014400061086160A2086120D2086160A208612AC
:100154008610861586160A2086120D20861106142E
:1001640086160A208612061086160A2086120D208C
:1001740086160A208612061486160A2086120D2078
:10018400061086160A20861286150615861406148D
:0C01940086160A2086120D205C1408005C
:1001A000E228803083120313E000F528C030E0001D
:1001B000F5289430E000F528D430E000F5288030B0
:1001C000E000F528831203136008013A0319D128CF
:1001D0006008023A0319D6286008033A0319D9289F
:1001E0006008043A0319DC28DF286103F000600886
:1001F000F0077008E0007008E5001A205C10E301C9
:10020000630862078400000803190E296308620767
:1002100084000008E4005A20E30A00295C14080066
:10022000283083120313E000E1010430E2000030C3
:10023000E30069208316071087100711871108143F
:100240008814081586018312860182200130E5009A
:100250001A200C30E5001A200130E0000130E100E6
:080260002030E200D02008006C
:10026800831203135E0884000008031948295E08F6
:1002780084000008F1005F08840071080006031D6F
:100288004829DE0ADF0A34295E0884000008F000E5
:100298005F0884000008F002F101031CF103080064
:1002A80062208A110A128000840ADA0A0319DB0A1A
:0802B800F003031D54290800A6
:1002C000B82210210B30FB002630FC005D30FD0011
:1002D000FD0B6829FC0B6829FB0B68290000000056
:1002E0000130E5001A200714081C81293330DD0095
:1002F0005808283E840033308000D80A0319D90AF0
:100300009A29881C8E293230DD005808283E840046
:1003100032308000D80A0319D90A9A29081D9A296F
:100320003130DD005808283E840031308000D80A82
:100330000319D90A07108714081CA9293630DD00D3
:100340005808283E840036308000D80A0319D90A9C
:10035000C229881CB6293530DD005808283E8400A3
:1003600035308000D80A0319D90AC229081DC229CC
:100370003430DD005808283E840034308000D80A2C
:100380000319D90A87100715081CD1293930DD0057
:100390005808283E840039308000D80A0319D90A49
:1003A000EA29881CDE293830DD005808283E840000
:1003B00038308000D80A0319D90AEA29081DEA2929
:1003C0003730DD005808283E840037308000D80AD6
:1003D0000319D90A87150711081CF9293030DD00E7
:1003E0005808283E840030308000D80A0319D90A02
:1003F000122A881C062A3030DD005808283E840066
:1004000030308000D80A0319D90A122A081D122A8E
:100410003030DD005808283E840030308000D80A93
:100420000319D90A0130E0000130E1003230E20066
:10043000D0200230E0000130E1002830E200D0207E
:100440000B30FB002630FC005D30FD00FD0B262A42
:10045000FC0B262AFB0B262A000000000030590660
:10046000031D342A04305806031D772AD801D90108
:100470000130E5001A202830DE002D30DF00342165
:1004800000307106031D462A00307006031D502AF5
:100490000230E0000130E1003F30E200D0205E2A6F
:1004A0000230E0000130E1004B30E200D0200130AA
:1004B000E0000130E1002830E200D0202830E000E8
:1004C000E1010430E2000030E30069200B30FB0062
:1004D0002630FC005D30FD00FD0B6C2AFC0B6C2A05
:1004E000FB0B6C2A000000000130E5001A20732984
:0204F000782A68
:10057000203084003A3083120313F0007E30DA001A
:080580000230DB0054210800E9
:1004FC004D346534723468346134623461340034A0
:0A050C003034303430343034003421
:0A051600313432343334343400340D
:100520004B346F3464342034473469347234693462
:0A0530006E3469347A343A34003432
:10053A0053346934663472346534203444346F3445
:08054A0067347234753400348B
:100552005334693466347234653420345934613426
:0A0562006E346C34693473340034D5
:04056C000034003423
:02400E007A3BFB
:00000001FF
