:02000000ED2CE5
:0E000600213083120313FD00FD0B07280800B4
:100014000F3083120313FC004730FD00FD0B102842
:0A002400FC0B10280000000008008B
:06002E00000000000800C4
:1000340083120313EB1B20288611212886156B1BC2
:100044002528061126280615EB1A2A2886102B289F
:1000540086146B1A2F2806103028061447183428E3
:10006400061635280612861617208612EB193C2828
:1000740086113D2886156B1941280611422806155C
:10008400EB1846288610472886146B184B28061050
:100094004C280614471850280616512806128616AE
:1000A40017208612471C58280A20592803200800C4
:0800B400FA1FF21300300800EE
:1000BC007B15FB1F68280130F300F201F101F00100
:0800CC00FA0DF20CFF300800F0
:1000D400FB14FB1F7428FF30F300F200F100F00062
:0800E400FA0DF20CFF300800D8
:0E00EC00F201F101F001F801F301003008000B
:1000FA00A6017208031D92287108F2007008F10027
:10010A00F001A6157208031D92287108F200F10188
:10011A00A611261672080319A0282608F302031D41
:10012A00031CA4280310F21BA828F00DF10DF20DF0
:10013A00F30B9828A4280130FC007620AB28023063
:0E014A00FC005E20AB280430FC005A200800A8
:10015800831203136908F2007208F100F20A6A08B0
:10016800F000EA0A700884000008F00071088400B2
:10017800700880007108840000080319C428B0289A
:060188006908F000080008
:10018E000E3083120313FD00FD0BCB280000080078
:10019E008316031386120612061086100611861198
:1001AE0083128612061286110611861006100A2078
:1001BE000A200A20861406148616172086120A2094
:1001CE008616172086120A208616172086120A20F7
:1001DE0006108616172086120A20861617208612FB
:1001EE00861086158616172086120A20861106148A
:1001FE0086161720861206108616172086120A20DB
:10020E0086161720861206148616172086120A20C6
:10021E0006108616172086128615061586140614E5
:0C022E008616172086120A2047140800CC
:10023A0083120313FD01F8017008031900347406D0
:10024A00FA00FA1BFD09FB01F41F2D29F409F40A2F
:10025A00F01F3129F009F00A70087404FA00FA1B39
:10026A0055297408F802F00D700DF80D7408F80796
:10027A00F00D0630FC00700DF80D74087018F802C5
:10028A00701CF807F00DFC0B4029701CF8077B184E
:10029A006329FD1F0034F009F00AF809F80A00344E
:1002AA00F41F6029F01B5D297008F800F0014E293F
:1002BA00F001F00A0034F009FB0A3629F80A74083A
:1002CA007802031D4E29F801F00AF01F4E29FF3467
:0202DA0008001A
:1002DC0083120313FA017308031D7A147708031DA4
:1002EC00FA147A080319BA29033A031985297A18DA
:1002FC008229F61FB829B629F21FB629B829720827
:10030C008039FA00F21376088039F6137A0603194D
:10031C0093297A080319B629B829770873020319A7
:10032C009A29031CAE29B229760872020319A12955
:10033C00031CAE29B229750871020319A829031CE4
:10034C00AE29B229740870020319BA290318B2290C
:10035C00FA080319B829B629FA080319B629B829D5
:10036C000314080003100800031403150800080008
:10037C0083120313FB017308031D77080319152A55
:10038C0072087606FA007708F3077E30031CD22930
:10039C00F3020318182AD529F302031C1B2A72082E
:1003AC00F8007108FC007008FD00F817F617031030
:1003BC00F201F101F0011830A6007D1CEF29740840
:1003CC00F00775080318750FF10776080318760FF8
:1003DC00F207F20CF10CF00CF80CFC0CFD0C0310F9
:1003EC00A60BE329F21BFF29F80DF00DF10DF20D10
:1003FC00F3037B1B701C112AF81F112AF00A031936
:10040C00F10A0319F20A031D112AF20CF10CF00C7B
:10041C00F30A0319182AFA1FF21300301D2A0130AF
:10042C0076201D2A02306A201D2A04305E2000002E
:02043C000800B6
:0E043E008312031346088A0045088200080056
:10044C008312031347106908EB001A2047140800A5
:10045C00402A803083120313DC00532AC030DC00A6
:10046C00532A9430DC00532AD430DC00532A8030D9
:10047C00DC00532A831203135C08013A03192F2A58
:10048C005C08023A0319342A5C08033A0319372A28
:10049C005C08043A03193A2A3D2A5D03F0005C0813
:1004AC00F0077008DC007008EB001A204710DF0121
:1004BC005F085E078400000803196C2A5F085E075A
:1004CC0084000008E9002622DF0A5E2A471408008F
:1004DC00831203137008F8007108F000F101F201A7
:1004EC00F301FB01FC019630F300FA017008F100F6
:0C04FC007808F000F801F2017D200800F3
:1005080083120313E701E8015C08E3005D08E400D7
:100518005E08E5005F08E6006608FF3A031D9E2AAC
:100528006508FF3A031D9E2A6408FF3A031D9E2AA8
:100538006308FF3A031DA82A6008E9002730EA008B
:10054800AC200330F000812C0130E100E51FB72A10
:1005580080306506F0007008E500E10A6008840054
:100568002D308000E00A0030F0006606031DC62A20
:1005780070086506031DC62A70086406031DC62A8E
:100588006308003A031DCF2A6008E9002C30EA000E
:10059800AC20F001812C6608FF3A031DDD2A6508AE
:1005A800003A031DDD2A6408003A031DDD2A6308AA
:1005B800003A031DE72A6008E9002E30EA00AC2063
:1005C8006108F000812C0030F4000030F5000030A4
:1005D800F6007F30F7006308F0006408F100650852
:1005E800F2006608F3006E21013003180030F000B5
:1005F800700803191A2B6308F0006408F1006508F5
:10060800F2006608F3000030F4000030F5002030F6
:10061800F6008230F700BE217008E3007108E4009C
:100628007208E5007308E600E803E72A0030F400E2
:100638000030F5002030F6008230F7006308F00043
:100648006408F1006508F2006608F3006E210130C5
:10065800031C0030F000700803194D2B6308F000EC
:100668006408F1006508F2006608F300CD30F40074
:10067800CC30F5004C30F6007B30F700BE21700816
:10068800E3007108E4007208E5007308E600E80A70
:100698001A2BFF306305F800FF306405F9007F303E
:1006A8006505FA0000306605FB007808F400790853
:1006B800F5007A08F6007B08F700F40DF50DF60D45
:1006C800F70D741000306305F00000306405F10088
:1006D80000306505F200FF306605F3007008E3009E
:1006E8007108E4007208E5007308E6007408630402
:1006F800F00075086404F10076086504F2007708D4
:100708006604F3007008E3007108E4007208E5006D
:100718007308E6007F306602F0007008E2000130DE
:10072800E6007008F4006308F0006408F10065084A
:10073800F2006608F30074080319A92BF00DF10DF7
:10074800F20DF30D7010FF3EA02B7008E300710846
:10075800E4007208E5007308E6006608303EF00021
:100768006008840070088000E00A80306806F000A5
:100778008030013A7002031CCA2B8030063AF00020
:10078800803068067002031CCA2BD12B60088400D5
:100798002E308000E00A0130E7000630E2006208EF
:1007A800003A03192F2CE6016308F0006408F100F1
:1007B8006508F2006608F300F00DF10DF20DF30D77
:1007C8007010F00DF10DF20DF30D70106308F007C5
:1007D80064080318640FF10765080318650FF2072A
:1007E80066080318660FF3077008E3007108E40051
:1007F8007208E5007308E6006308F0006408F10079
:100808006508F2006608F300F00DF10DF20DF30D26
:1008180070107008E3007108E4007208E5007308BE
:10082800E6006608303EF00060088400700880002A
:10083800E00A6708003A031D2D2CE8036808003A0F
:10084800031D2D2C600884002E308000E00A013042
:10085800E700E203D32BFF30600784000008303A3A
:10086800031D382CE0032F2CFF306007840000089C
:100878002E3A031D402CE0036808003A03197D2C2A
:100888006008840065308000E00A80306806F00067
:100898008030003A70020318592C600884002D300B
:1008A8008000E00A6808003CE8006808E200803040
:1008B800093AF00080306806700203186F2C0A307D
:1008C800F4006208F0001D213030F0076008840051
:1008D80070088000E00A0A30F4006208F0001D2168
:1008E8007808F0003030F007600884007008800055
:0C08F800E00A600884008001F0010800A4
:10090400831203135C08F2007208840000080319C0
:100914008D2CF20A862C7208F100F20A5D08F000B0
:10092400DD0A700884000008F00071088400700873
:1009340080007108840000080319A12C8D2C5C0828
:04094400F0000800B7
:100948004E30831603139F00453083129F00831691
:1009580086018312860183168801CF200130EB00BF
:0A0968001A200C30EB001A200800E2
:100972001F228A110A128000840AC50A0319C60AB4
:08098200F003031DB92C08006D
:10098A00831203139F01C0309F042B09F0007008E3
:10099A0083169F051F179F1783125C08F000F00D3E
:1009AA007010F00D7010F00D701070089F041F1475
:1009BA00C7201F151F1DE32C0000DF2C1F101E0867
:1009CA00F100F00183161E08F0040030F10408005B
:1009DA007625A4240B30FB002630FC005D30FD0098
:1009EA00FD0BF52CFC0BF52CFB0BF52C0000000085
:1009FA000130EB001A20DC01C52470088312A00024
:100A0A007108A1001A30C8006730C9001C30CA003A
:100A1A008130CB006E221A30F4006730F5001C30AA
:100A2A00F6008130F700BE217008A2007108A30009
:100A3A007208A4007308A5007008DC007108DD00C4
:100A4A007208DE007308DF004C30E00084224C306C
:100A5A00DC004130DD0082240130DC000130DD00A1
:100A6A003230DE002E220230DC000130DD004C3054
:100A7A00DE002E220B30FB002630FC005D30FD002C
:100A8A00FD0B452DFC0B452DFB0B452D00000000F1
:0A0A9A000130EB001A20002D512D51
:100AEC00273084001E3083120313F0005730C500EA
:080AFC000530C600B924080012
:080AAE004E3461344E34003473
:020AB6000F34FB
:040AB80030340034A2
:080ABC0049344E344634003485
:100AC4004F346C34633475346C3465346E34203490
:0E0AD400443465346734653472343A34003487
:080AE20020346D345634003459
:02400E007A3BFB
:00000001FF
