:020000001029C5
:0E000600213083120313FD00FD0B07280800B4
:100014000F3083120313FC004730FD00FD0B102842
:0A002400FC0B10280000000008008B
:06002E00000000000800C4
:1000340083120313BB1B20288611212886153B1B22
:100044002528061126280615BB1A2A2886102B28CF
:1000540086143B1A2F280610302806143518342825
:10006400061635280612861617208612BB193C2858
:1000740086113D2886153B1941280611422806158C
:10008400BB1846288610472886143B184B280610B0
:100094004C280614351850280616512806128616C0
:1000A40017208612351C58280A20592803200800D6
:1000B4008316031386120612061086100611861183
:1000C40083128612061286110611861006100A2063
:1000D4000A200A20861406148616172086120A207F
:1000E4008616172086120A208616172086120A20E2
:1000F40006108616172086120A20861617208612E6
:10010400861086158616172086120A208611061474
:1001140086161720861206108616172086120A20C5
:1001240086161720861206148616172086120A20B1
:1001340006108616172086128615061586140614D0
:0C0144008616172086120A2035140800C9
:0E0150008312031334088A003308820008006B
:10015E008312031335103A08BB001A203514080019
:10016E00831603138601831286015A200130BB00C9
:0A017E001A200C30BB001A20080004
:10018800D628803083120313B600E928C030B600A1
:10019800E9289430B600E928D430B600E928803040
:1001A800B600E928831203133608013A0319C52853
:1001B8003608023A0319CA283608033A0319CD2823
:1001C8003608043A0319D028D3283703F000360834
:1001D800F0077008B6007008BB001A203510B90186
:1001E8003908380784000008031902293908380734
:1001F80084000008BA00AF20B90AF42835140800B2
:10020800A8208A110A128000840AB30A0319B40AC2
:08021800F003031D0429080096
:100220004C3083120313A0004330A1004430A200DD
:10023000A3014230A4007530A5002030A6006B3029
:10024000A7006130A8006430A9006130AA007230B4
:10025000AB002030AC006230AD006130AE007330D6
:10026000AF006930B0007430B100B201B720013086
:10027000B6000530B7002030B800C4200230B60008
:0E0280000130B7002430B800C42045294629BB
:02400E007A3BFB
:00000001FF
