:02000000F528E1
:10000600710DF80DF90D7408F8027508031C750FCB
:10001600F902F00DF10D0F30FC00710DF80DF90D20
:100026007408701C1C28F8027508031C750FF90269
:100036002128F80775080318750FF907F00DF10D5B
:10004600FC0B102870182D287408F807750803187B
:08005600750FF9070000080016
:10005E00831203137408003A031D3E287508003AF4
:10006E00031D3E28FF30F0007F30F10097288312E9
:10007E000313FD01F901F80171087004031900342E
:10008E0071087506FA00FA1BFD09FB01F51F5428CD
:10009E00F409F509F40A0319F50AF11F5B28F009B2
:1000AE00F109F00A0319F10A71087504FA00FA1B36
:1000BE00702803207B188328FD1F0034F009F109F6
:1000CE00F00A0319F10AF809F909F80A0319F90AED
:1000DE000034F51F7F28F11B7B287108F90070088A
:1000EE00F800F101F0016328F101F001F00A00348B
:1000FE00F109F009FB0A6028F80A0319F90A7408D5
:10010E007802031D632875087902031D6328F9011F
:10011E00F801F00A0319F10AF11F63280000FF34F9
:02012E000800C7
:0E0130008312031323088A00220882000800AD
:10013E000A3083120313F4000030F5002008F0009B
:10014E002108F1002F207008AA007108AB002A08C0
:10015E00A4002B08A5000A30F4000030F50020089A
:10016E00F0002108F1002F207808F0007908F10046
:10017E007008A6007108A7000430F4002A08F200E7
:10018E002B08F30074080319D128F20DF30D721029
:10019E00FF3ECA287208A4007308A5007208F00674
:1001AE007308F1067008A8007108A900700886008F
:0201BE00080037
:1001C00098208A110A128000840AA20A0319A30A3D
:0801D000F003031DE028080004
:1001D80083160313860183128601FF308316880075
:0201E80008000D
:1001EA0083120313A001A101EC208312081C1B290E
:1001FA000630FB001330FC00AD30FD00FD0B032977
:10020A00FC0B0329FB0B032900000000A00A0319B9
:10021A00A10A8030F000803021067002031D1729E0
:10022A002008633C03181B29A001A101881C3E2950
:10023A000630FB001330FC00AD30FD00FD0B232916
:10024A00FC0B2329FB0B2329000000000130A0022C
:10025A00031CA10380302106F00080307002031DC8
:10026A0038290030200203183E296330A0000030EC
:08027A00A1009F20FA28402991
:02400E007A3BFB
:00000001FF
