:02000000642971
:0E000600F201F101F001F801F30100300800F1
:100014007B15FB1F14280130F300F201F101F001FC
:08002400FA0DF20CFF30080098
:08002C00FA1FF2130030080076
:10003400FB14FB1F2428FF30F300F200F100F00052
:08004400FA0DF20CFF30080078
:10004C00A0017208031D3B287108F2007008F10032
:10005C00F001A0157208031D3B287108F200F10194
:10006C00A01120167208031949282008F302031D59
:10007C00031C4D280310F21B5128F00DF10DF20D4D
:10008C00F30B41284D280130FC000320542802308A
:0E009C00FC000A2054280430FC001620080046
:1000AA007B14FB1F6028F201FA1FFF30F200F100F7
:0A00BA00F000FA0DF20CFF30080010
:1000C4000E3083120313FD00FD0B662800000800A8
:0E00D4008312031323088A002208820008000A
:1000E2006A208A110A128000840AA20A0319A30A4A
:0800F200F003031D7128080052
:1000FA0083120313FB017308031D77080319D4281D
:10010A0072087606FA007708F3077E30031C9128F6
:10011A00F3020318D7289428F302031CDA2872087A
:10012A00F8007108FC007008FD00F817F6170310B4
:10013A00F201F101F0011830A0007D1CAE2874080C
:10014A00F00775080318750FF10776080318760F7C
:10015A00F207F20CF10CF00CF80CFC0CFD0C03107D
:10016A00A00BA228F21BBE28F80DF00DF10DF20D1E
:10017A00F3037B1B701CD028F81FD028F00A031940
:10018A00F10A0319F20A031DD028F20CF10CF00C43
:10019A00F30A0319D728FA1FF2130030DC280130BA
:1001AA000320DC2802301A20DC2804300A20000050
:0201BA0008003B
:1001BC00831203137008F8007108F000F101F201CA
:1001CC00F301FB01FC019630F300FA017008F10019
:0C01DC007808F000F801F201262008006D
:1001E80083120313FB01FC01FA0173080319212987
:1001F800FA13F2178630F302F31B052903190529B0
:100208002329F309F30A08307302031C1229F300A7
:10021800F20DF2017308031D03101929730803195D
:1002280019290310F20CF30B15297B1B721C2129C9
:10023800031C2129F20A03192829F1012B297B140F
:10024800FB1F2E29F1012E290130FC003029003036
:10025800FC003029FF30FC00FC0803193429552024
:060268007208F00008001E
:10026E004E30831603139F00453083129F00831672
:10027E008601831286018316880183128801080085
:10028E00C730831203139F052108F000F00D701084
:10029E00F00D7010F00D701070089F0462201F1585
:1002AE001F1D5B29000057291E08F100F00183165F
:0A02BE001E08F0040030F1040800EF
:1002C8003721A1014721DE207008A4007108A5008C
:1002D8007208A6007308A700DB30F400F930F500B7
:1002E8007E30F6007C30F7007D207008A40071088D
:1002F800A5007208A6007308A700F42070088600FD
:08030800803088066529872971
:02400E007A3BFB
:00000001FF
